{
  "_format": "hh-sol-artifact-1",
  "contractName": "NFTMarketplace",
  "sourceName": "contracts/NFTMarketplace.sol",
  "abi": [
    {
      "inputs": [],
      "stateMutability": "nonpayable",
      "type": "constructor"
    },
    {
      "inputs": [
        {
          "internalType": "address",
          "name": "owner",
          "type": "address"
        }
      ],
      "name": "OwnableInvalidOwner",
      "type": "error"
    },
    {
      "inputs": [
        {
          "internalType": "address",
          "name": "account",
          "type": "address"
        }
      ],
      "name": "OwnableUnauthorizedAccount",
      "type": "error"
    },
    {
      "anonymous": false,
      "inputs": [
        {
          "indexed": true,
          "internalType": "address",
          "name": "nftContract",
          "type": "address"
        },
        {
          "indexed": true,
          "internalType": "uint256",
          "name": "tokenId",
          "type": "uint256"
        },
        {
          "indexed": false,
          "internalType": "address",
          "name": "seller",
          "type": "address"
        }
      ],
      "name": "ListingCancelled",
      "type": "event"
    },
    {
      "anonymous": false,
      "inputs": [
        {
          "indexed": true,
          "internalType": "address",
          "name": "nftContract",
          "type": "address"
        },
        {
          "indexed": true,
          "internalType": "uint256",
          "name": "tokenId",
          "type": "uint256"
        },
        {
          "indexed": false,
          "internalType": "uint256",
          "name": "price",
          "type": "uint256"
        },
        {
          "indexed": false,
          "internalType": "address",
          "name": "buyer",
          "type": "address"
        }
      ],
      "name": "NFTBought",
      "type": "event"
    },
    {
      "anonymous": false,
      "inputs": [
        {
          "indexed": true,
          "internalType": "address",
          "name": "nftContract",
          "type": "address"
        },
        {
          "indexed": true,
          "internalType": "uint256",
          "name": "tokenId",
          "type": "uint256"
        },
        {
          "indexed": false,
          "internalType": "uint256",
          "name": "price",
          "type": "uint256"
        },
        {
          "indexed": false,
          "internalType": "address",
          "name": "seller",
          "type": "address"
        }
      ],
      "name": "NFTListed",
      "type": "event"
    },
    {
      "anonymous": false,
      "inputs": [
        {
          "indexed": true,
          "internalType": "address",
          "name": "nftContract",
          "type": "address"
        },
        {
          "indexed": true,
          "internalType": "uint256",
          "name": "tokenId",
          "type": "uint256"
        },
        {
          "indexed": false,
          "internalType": "uint256",
          "name": "offerPrice",
          "type": "uint256"
        },
        {
          "indexed": false,
          "internalType": "address",
          "name": "buyer",
          "type": "address"
        }
      ],
      "name": "OfferAccepted",
      "type": "event"
    },
    {
      "anonymous": false,
      "inputs": [
        {
          "indexed": true,
          "internalType": "address",
          "name": "nftContract",
          "type": "address"
        },
        {
          "indexed": true,
          "internalType": "uint256",
          "name": "tokenId",
          "type": "uint256"
        },
        {
          "indexed": false,
          "internalType": "uint256",
          "name": "offerPrice",
          "type": "uint256"
        },
        {
          "indexed": false,
          "internalType": "address",
          "name": "offerer",
          "type": "address"
        }
      ],
      "name": "OfferMade",
      "type": "event"
    },
    {
      "anonymous": false,
      "inputs": [
        {
          "indexed": true,
          "internalType": "address",
          "name": "previousOwner",
          "type": "address"
        },
        {
          "indexed": true,
          "internalType": "address",
          "name": "newOwner",
          "type": "address"
        }
      ],
      "name": "OwnershipTransferred",
      "type": "event"
    },
    {
      "inputs": [
        {
          "internalType": "address",
          "name": "nftContract",
          "type": "address"
        },
        {
          "internalType": "uint256",
          "name": "tokenId",
          "type": "uint256"
        }
      ],
      "name": "acceptOffer",
      "outputs": [],
      "stateMutability": "nonpayable",
      "type": "function"
    },
    {
      "inputs": [
        {
          "internalType": "address",
          "name": "nftContract",
          "type": "address"
        },
        {
          "internalType": "uint256",
          "name": "tokenId",
          "type": "uint256"
        }
      ],
      "name": "buyNFT",
      "outputs": [],
      "stateMutability": "payable",
      "type": "function"
    },
    {
      "inputs": [
        {
          "internalType": "address",
          "name": "nftContract",
          "type": "address"
        },
        {
          "internalType": "uint256",
          "name": "tokenId",
          "type": "uint256"
        }
      ],
      "name": "cancelListing",
      "outputs": [],
      "stateMutability": "nonpayable",
      "type": "function"
    },
    {
      "inputs": [
        {
          "internalType": "address",
          "name": "nftContract",
          "type": "address"
        },
        {
          "internalType": "uint256",
          "name": "tokenId",
          "type": "uint256"
        },
        {
          "internalType": "uint256",
          "name": "price",
          "type": "uint256"
        }
      ],
      "name": "listNFT",
      "outputs": [],
      "stateMutability": "nonpayable",
      "type": "function"
    },
    {
      "inputs": [
        {
          "internalType": "address",
          "name": "",
          "type": "address"
        },
        {
          "internalType": "uint256",
          "name": "",
          "type": "uint256"
        }
      ],
      "name": "listings",
      "outputs": [
        {
          "internalType": "uint256",
          "name": "price",
          "type": "uint256"
        },
        {
          "internalType": "address",
          "name": "seller",
          "type": "address"
        }
      ],
      "stateMutability": "view",
      "type": "function"
    },
    {
      "inputs": [
        {
          "internalType": "address",
          "name": "nftContract",
          "type": "address"
        },
        {
          "internalType": "uint256",
          "name": "tokenId",
          "type": "uint256"
        }
      ],
      "name": "makeOffer",
      "outputs": [],
      "stateMutability": "payable",
      "type": "function"
    },
    {
      "inputs": [
        {
          "internalType": "address",
          "name": "",
          "type": "address"
        },
        {
          "internalType": "uint256",
          "name": "",
          "type": "uint256"
        }
      ],
      "name": "offers",
      "outputs": [
        {
          "internalType": "uint256",
          "name": "offerPrice",
          "type": "uint256"
        },
        {
          "internalType": "address",
          "name": "offerer",
          "type": "address"
        }
      ],
      "stateMutability": "view",
      "type": "function"
    },
    {
      "inputs": [],
      "name": "owner",
      "outputs": [
        {
          "internalType": "address",
          "name": "",
          "type": "address"
        }
      ],
      "stateMutability": "view",
      "type": "function"
    },
    {
      "inputs": [],
      "name": "renounceOwnership",
      "outputs": [],
      "stateMutability": "nonpayable",
      "type": "function"
    },
    {
      "inputs": [
        {
          "internalType": "address",
          "name": "newOwner",
          "type": "address"
        }
      ],
      "name": "transferOwnership",
      "outputs": [],
      "stateMutability": "nonpayable",
      "type": "function"
    }
  ],
  "bytecode": "0x608060405234801561001057600080fd5b50338061003757604051631e4fbdf760e01b81526000600482015260240160405180910390fd5b61004081610046565b50610096565b600080546001600160a01b038381166001600160a01b0319831681178455604051919092169283917f8be0079c531659141344cd1fd0a4f28419497f9722a3daafe3b4186f6b6457e09190a35050565b610a85806100a56000396000f3fe6080604052600436106100905760003560e01c8063ad05f1b411610059578063ad05f1b414610196578063b1b9e78d146101b6578063b2a4706e146101d6578063b2ddee06146101e9578063f2fde38b1461020957600080fd5b806207df3014610095578063715018a6146100fc5780638da5cb5b14610113578063a82ba76f1461013b578063aa1a84111461014e575b600080fd5b3480156100a157600080fd5b506100da6100b03660046109ac565b6001602081815260009384526040808520909152918352912080549101546001600160a01b031682565b604080519283526001600160a01b039091166020830152015b60405180910390f35b34801561010857600080fd5b50610111610229565b005b34801561011f57600080fd5b506000546040516001600160a01b0390911681526020016100f3565b6101116101493660046109ac565b61023d565b34801561015a57600080fd5b506100da6101693660046109ac565b6002602090815260009283526040808420909152908252902080546001909101546001600160a01b031682565b3480156101a257600080fd5b506101116101b13660046109d6565b6103ec565b3480156101c257600080fd5b506101116101d13660046109ac565b6104dd565b6101116101e43660046109ac565b6106e4565b3480156101f557600080fd5b506101116102043660046109ac565b610774565b34801561021557600080fd5b50610111610224366004610a09565b6108d5565b610231610913565b61023b6000610940565b565b6001600160a01b0380831660009081526001602081815260408084208685528252928390208351808501909452805480855292015490931692820192909252903410156102d15760405162461bcd60e51b815260206004820152601b60248201527f4e6f7420656e6f7567682066756e647320746f20627579204e4654000000000060448201526064015b60405180910390fd5b602081015181516040516001600160a01b039092169181156108fc0291906000818181858888f1935050505015801561030e573d6000803e3d6000fd5b506040516323b872dd60e01b81526001600160a01b038416906323b872dd9061033f90309033908790600401610a2b565b600060405180830381600087803b15801561035957600080fd5b505af115801561036d573d6000803e3d6000fd5b505050506001600160a01b038316600081815260016020818152604080842087855282528084209384559290910180546001600160a01b03191690558351825190815233918101919091528492917f61def4a8a5424d679cd882f1ba985642b03d812cba4547ed727988619834843291015b60405180910390a3505050565b6040516323b872dd60e01b81526001600160a01b038416906323b872dd9061041c90339030908790600401610a2b565b600060405180830381600087803b15801561043657600080fd5b505af115801561044a573d6000803e3d6000fd5b50506040805180820182528481523360208083018281526001600160a01b038a8116600081815260018086528882208d83528652908890209651875592519590920180546001600160a01b03191695909116949094179093558351878152908101919091528694509092507f5ba0ddd8e72e3c5c274414bd1ef0dec9ae5220e0f6f534d859043e2a52f0319f91016103df565b6001600160a01b0380831660008181526002602090815260408083208684528252808320815180830183528154815260019182015487168185015294845280835281842087855283529281902081518083019092528054825290920154909316928101839052909133146105935760405162461bcd60e51b815260206004820152601c60248201527f4f6e6c792073656c6c65722063616e20616363657074206f666665720000000060448201526064016102c8565b602081015182516040516001600160a01b039092169181156108fc0291906000818181858888f193505050501580156105d0573d6000803e3d6000fd5b5060208201516040516323b872dd60e01b81526001600160a01b038616916323b872dd916106049130918890600401610a2b565b600060405180830381600087803b15801561061e57600080fd5b505af1158015610632573d6000803e3d6000fd5b5050506001600160a01b03851660008181526002602090815260408083208884528252808320838155600190810180546001600160a01b03199081169091558585528184528285208a865284528285209485559301805490931690925585519086015191518794507fe050322571029b86dc3f56d18994ea3d4477c6cb0a41d626cdef1dbc7eac272b926106d69282526001600160a01b0316602082015260400190565b60405180910390a350505050565b604080518082018252348082523360208084018281526001600160a01b038881166000818152600285528881208a82528552889020965187559151600190960180546001600160a01b0319169690911695909517909455845192835282015283927f5adfc52d79aa340eaa5c7f06402ac980fe26cc871110a39e7728c19863ad5130910160405180910390a35050565b6001600160a01b038083166000908152600160208181526040808420868552825292839020835180850190945280548452909101549092169181018290529033146108015760405162461bcd60e51b815260206004820152601e60248201527f4f6e6c792073656c6c65722063616e2063616e63656c206c697374696e67000060448201526064016102c8565b60208101516040516323b872dd60e01b81526001600160a01b038516916323b872dd916108349130918790600401610a2b565b600060405180830381600087803b15801561084e57600080fd5b505af1158015610862573d6000803e3d6000fd5b505050506001600160a01b03838116600081815260016020818152604080842088855282528084209384559290910180546001600160a01b031916905584810151915191909316815284927f8526cb6d400b8a551983c99e6d6fb1775b7a0deeb5d1e39d3ee65bc59e5eac2791016103df565b6108dd610913565b6001600160a01b03811661090757604051631e4fbdf760e01b8152600060048201526024016102c8565b61091081610940565b50565b6000546001600160a01b0316331461023b5760405163118cdaa760e01b81523360048201526024016102c8565b600080546001600160a01b038381166001600160a01b0319831681178455604051919092169283917f8be0079c531659141344cd1fd0a4f28419497f9722a3daafe3b4186f6b6457e09190a35050565b80356001600160a01b03811681146109a757600080fd5b919050565b600080604083850312156109bf57600080fd5b6109c883610990565b946020939093013593505050565b6000806000606084860312156109eb57600080fd5b6109f484610990565b95602085013595506040909401359392505050565b600060208284031215610a1b57600080fd5b610a2482610990565b9392505050565b6001600160a01b03938416815291909216602082015260408101919091526060019056fea26469706673582212201bb55ab08b330b1e6383995d29b299bc3626ddad8be68ba969f34d4a38d4d95864736f6c63430008140033",
  "linkReferences": {},
  "deployedLinkReferences": {}
}